:1000000045C0000060C000005EC000005CC0000091
:100010005AC0000058C0000056C0000054C0000084
:1000200052C0000050C000004EC000004CC0000094
:100030004AC0000048C0000046C0000044C00000A4
:1000400042C000008CC000003EC000003CC0000068
:100050003AC0000038C0000036C0000034C00000C4
:1000600032C0000030C000002EC000002CC00000D4
:100070002AC0000028C0000026C0000024C00000E4
:1000800022C0000020C000001EC0000011241FBEBE
:10009000CFEFD0E1DEBFCDBF11E0A0E0B1E0E8EBF3
:1000A000F1E000E00BBF02C007900D92AA30B1074B
:1000B000D9F721E0AAE0B1E001C01D92AE30B2074D
:1000C000E1F702D077C09CCF789400E020E040E0D8
:1000D00060E081E015D08DE4C0E036D02FEF89E6F6
:1000E00098E1215080409040E1F700C00000CF5FD0
:1000F000EC2FF0E0EF5FFE4F80818111EECFEBCF70
:100100000F93882329F087B3876087BB6C9A02C05E
:10011000BB9A6C98662311F0689A01C068984423D2
:1001200011F0699A01C06998002311F0699A01C021
:100130006D98222311F0709A01C070988DB1806C77
:100140008DB9C09A0F910895C0989091000199239C
:1001500029F08FB9F89410920001789408951F92B5
:100160000F920FB60F9211240BB60F928F93EF934D
:10017000FF93F89481E08093000180910B01882324
:1001800011F0C09801C0C09A80910A01882341F003
:10019000E0910C01F0910D018FB1808310920A0162
:1001A000FF91EF918F910F900BBE0F900FBE0F90AC
:0801B0001F901895F894FFCF91
:0A01B800014D61686D6F7564000071
:00000001FF
