:1000000045C0000060C000005EC000005CC0000091
:100010005AC0000058C0000056C0000054C0000084
:1000200052C0000050C000004EC000004CC0000094
:100030004AC0000048C0000046C0000044C00000A4
:1000400042C0000042C100003EC000003CC00000B1
:100050003AC0000038C0000036C0000034C00000C4
:1000600032C0000030C000002EC000002CC00000D4
:100070002AC0000028C0000026C0000024C00000E4
:1000800022C0000020C000001EC0000011241FBEBE
:10009000CFEFD0E1DEBFCDBF11E0A0E0B1E0E4E200
:1000A000F3E000E00BBF02C007900D92A230B10751
:1000B000D9F721E0A2E0B1E001C01D92A630B2075D
:1000C000E1F7BAD02DC19CCF95989698882314F467
:1000D0001F9A01C01F9886FF02C01E9A01C01E9879
:1000E00085FF02C01D9A01C01D9884FF02C01C9AA2
:1000F00001C01C989AE69A95F1F700C0979A9798D4
:1001000083FF02C01F9A01C01F9882FF02C01E9A7F
:1001100001C01E9881FF02C01D9A01C01D9880FF7A
:1001200002C01C9A01C01C988AE68A95F1F700C0AB
:10013000979A97989AE69A95F1F700C0089581B337
:10014000806E81BB82B38F7182BB82B1806F82B9B6
:1001500083B18F7083B98FE39CE90197F1F700C0F9
:10016000000082E3B1DF88E2AFDF8CE0ADDF86E044
:10017000ABDF81E0A9DF8FE097E20197F1F700C0E4
:1001800000000895959A9698882314F41F9A01C048
:100190001F9886FF02C01E9A01C01E9885FF02C0EC
:1001A0001D9A01C01D9884FF02C01C9A01C01C98B2
:1001B0009AE69A95F1F700C0979A979883FF02C044
:1001C0001F9A01C01F9882FF02C01E9A01C01E988C
:1001D00081FF02C01D9A01C01D9880FF02C01C9AB9
:1001E00001C01C988AE68A95F1F700C0979A979803
:1001F0009AE69A95F1F700C00895613019F4805895
:1002000063CF0895623011F480545ECF0895CF9388
:10021000C82F862F642FF1DF8C2FB4DFCF91089584
:1002200081E052DF2FEF89EF90E021508040904035
:10023000E1F700C00000089500E020E040E060E049
:1002400080E016D07CDF38D0E0910401F091050108
:1002500080818D3451F4E4DFE0910401F0910501D7
:10026000808141E060E0D3DFEECF80818BDFEBCF98
:100270000F93882329F087B3876087BB6C9A02C0ED
:10028000BB9A6C98662311F0689A01C06898442361
:1002900011F0699A01C06998002311F0699A01C0B0
:1002A0006D98222311F0709A01C070988DB1806C06
:1002B0008DB9C09A0F910895779BFECFE09104010C
:1002C000F09105018FB1808308951F920F920FB6B0
:1002D0000F9211240BB60F928F93EF93FF93F89424
:1002E00081E08093000180910301882311F0C09880
:1002F00001C0C09A80910201882341F0E09104017D
:10030000F09105018FB1808310920201FF91EF916E
:100310008F910F900BBE0F900FBE0F901F901895EE
:04032000F894FFCF7F
:020324000100D6
:00000001FF
